:020000040000FA
:100000000201DFE4F5A77597A5F50CF50BF50AF5E8
:1000100009E47F19FEFDFCAB0CAA0BA90AA809C3D1
:100020001202C3501800E50C2401F50CE4350BF561
:100030000BE4350AF50AE43509F50980D4A2AF923C
:1000400002C2AF7597DE7597ADA20292AF2285A767
:100050000812000312007F120342120349120086A5
:1000600012032412032E1202AD1202E41202F21243
:1000700002FF12030C12026E1203388508A72275C4
:10008000D4FF2202008E759C1022220202D4C0E00E
:10009000C0D075D000C004C005C006C007E4FFE5AD
:1000A000AB30E725300122E5AB54406440600302E9
:1000B00001D2E5B954106410700553B9EF80E8AE71
:1000C0000E050E8EBB050F80DEE5AB30E310E5AB11
:1000D000540460030201D285BC0DD20080F0E5B962
:1000E000540F14602814603624FE700302017C242F
:1000F000FA601424FE602D14602A240460030201B7
:10010000CF53B9F60201CF53B9F50201CFE5B95487
:10011000106410700353B9EF53B9FE0201CF53B905
:10012000FD0201CF53B9FBE5F55470C4540FFFE550
:100130000FD394027480948040010FEFFDD394009C
:100140007480948050030201D243AD40ED94027458
:100150008094804017E50E9FF5BB04F5BBEF24FEAD
:10016000FFC3E50E9FF50E750F028066EF64017008
:1001700061C3E50E9FF5BB750F01805653B9FBE5D2
:10018000F55470C4540FFFE50FD39402748094802B
:1001900040010FEFFDD3940074809480403143AD53
:1001A00040ED9402748094804017E50E9FF5BB04E7
:1001B000F5BBEF24FEFFC3E50E9FF50E750F028021
:1001C0000EEF64017009C3E50E9FF5BB750F015377
:1001D000B9DFD007D006D005D004D0D0D0E032129D
:1001E000008A787FE4F6D8FD758120020229020298
:1001F00090E493A3F8E493A34003F68001F208DFB0
:10020000F48029E493A3F85407240CC8C333C454DE
:100210000F4420C8834004F456800146F6DFE48092
:100220000B0102040810204080900319E47E019322
:1002300060BCA3FF543F30E509541FFEE493A36064
:10024000010ECF54C025E060A840B8E493A3FAE4BF
:1002500093A3F8E493A3C8C582C8CAC583CAF0A310
:10026000C8C582C8CAC583CADFE9DEE780BE75A7F4
:100270002053ADFC43AD0853ADCF43AD9075A720DF
:1002800075BD7853BAFB43BA1853FF7F43BA0222B5
:1002900012004EC2A3D294C2AF75A72053BAFE4338
:1002A000AD44D2AF3000FDC200B29480F775A71004
:1002B000E59854045398FB75A33875A29E4398049F
:1002C000429822EB9FF5F0EA9E42F0E99D42F0E869
:1002D0009C45F02275A72053BAFD43BA0275A710BA
:1002E00053987F32E4F5A7C2DE75D908759E07D210
:1002F000DE2253F77F75DA4275FB4075FC402253CE
:10030000F77F75DB4275E94075EA402253F77F7548
:10031000DC4275EB4075EC4022C100C181010E004A
:10032000010F0000E4F5A775E34075E20322E4F550
:10033000A9E5A9548060FA22E4F5A775F30675A82B
:10034000802275A53E75D5412275A72075CC032264
:00000001FF
